{
  "address": "0xe7f1725E7734CE288F8367e1Bb143E90bb3F0512",
  "abi": [
    {
      "inputs": [
        {
          "internalType": "address",
          "name": "priceFeedAddress",
          "type": "address"
        }
      ],
      "stateMutability": "nonpayable",
      "type": "constructor"
    },
    {
      "inputs": [],
      "name": "NotOwner",
      "type": "error"
    },
    {
      "stateMutability": "payable",
      "type": "fallback"
    },
    {
      "inputs": [],
      "name": "MINIMUM_USD",
      "outputs": [
        {
          "internalType": "uint256",
          "name": "",
          "type": "uint256"
        }
      ],
      "stateMutability": "view",
      "type": "function"
    },
    {
      "inputs": [
        {
          "internalType": "address",
          "name": "",
          "type": "address"
        }
      ],
      "name": "addressToAmount",
      "outputs": [
        {
          "internalType": "uint256",
          "name": "",
          "type": "uint256"
        }
      ],
      "stateMutability": "view",
      "type": "function"
    },
    {
      "inputs": [],
      "name": "fund",
      "outputs": [],
      "stateMutability": "payable",
      "type": "function"
    },
    {
      "inputs": [
        {
          "internalType": "uint256",
          "name": "",
          "type": "uint256"
        }
      ],
      "name": "funders",
      "outputs": [
        {
          "internalType": "address",
          "name": "",
          "type": "address"
        }
      ],
      "stateMutability": "view",
      "type": "function"
    },
    {
      "inputs": [],
      "name": "i_owner",
      "outputs": [
        {
          "internalType": "address",
          "name": "",
          "type": "address"
        }
      ],
      "stateMutability": "view",
      "type": "function"
    },
    {
      "inputs": [],
      "name": "priceFeed",
      "outputs": [
        {
          "internalType": "contract AggregatorV3Interface",
          "name": "",
          "type": "address"
        }
      ],
      "stateMutability": "view",
      "type": "function"
    },
    {
      "inputs": [],
      "name": "withdraw",
      "outputs": [],
      "stateMutability": "nonpayable",
      "type": "function"
    },
    {
      "stateMutability": "payable",
      "type": "receive"
    }
  ],
  "transactionHash": "0xc1365bd811d3ac67257eb410459d39ef1ec85f874c40458df340af902fe9f4f1",
  "args": [
    "0x5FbDB2315678afecb367f032d93F642f64180aa3"
  ],
  "numDeployments": 1,
  "solcInputHash": "be127bdcaeb579fcffd97c5b39d063b2",
  "bytecode": "0x60a060405234801561001057600080fd5b50604051610fa3380380610fa383398181016040528101906100329190610113565b3373ffffffffffffffffffffffffffffffffffffffff1660808173ffffffffffffffffffffffffffffffffffffffff1660601b8152505080600260006101000a81548173ffffffffffffffffffffffffffffffffffffffff021916908373ffffffffffffffffffffffffffffffffffffffff16021790555050610140565b600080fd5b600073ffffffffffffffffffffffffffffffffffffffff82169050919050565b60006100e0826100b5565b9050919050565b6100f0816100d5565b81146100fb57600080fd5b50565b60008151905061010d816100e7565b92915050565b600060208284031215610129576101286100b0565b5b6000610137848285016100fe565b91505092915050565b60805160601c610e3e610165600039600081816102ec015261055f0152610e3e6000f3fe6080604052600436106100745760003560e01c8063741bef1a1161004e578063741bef1a1461010c578063b60d428814610137578063dba6335f14610141578063dc0d3dff1461016c57610083565b80633c7e7d281461008d5780633ccfd60b146100ca5780636b69a592146100e157610083565b36610083576100816101a9565b005b61008b6101a9565b005b34801561009957600080fd5b506100b460048036038101906100af91906107a6565b6102d2565b6040516100c191906107ec565b60405180910390f35b3480156100d657600080fd5b506100df6102ea565b005b3480156100ed57600080fd5b506100f661052a565b60405161010391906107ec565b60405180910390f35b34801561011857600080fd5b50610121610537565b60405161012e9190610866565b60405180910390f35b61013f6101a9565b005b34801561014d57600080fd5b5061015661055d565b6040516101639190610890565b60405180910390f35b34801561017857600080fd5b50610193600480360381019061018e91906108d7565b610581565b6040516101a09190610890565b60405180910390f35b6802b5e3af16b18800006101e8600260009054906101000a900473ffffffffffffffffffffffffffffffffffffffff16346105c090919063ffffffff16565b1015610229576040517f08c379a000000000000000000000000000000000000000000000000000000000815260040161022090610987565b60405180910390fd5b6000339080600181540180825580915050600190039060005260206000200160009091909190916101000a81548173ffffffffffffffffffffffffffffffffffffffff021916908373ffffffffffffffffffffffffffffffffffffffff16021790555034600160003373ffffffffffffffffffffffffffffffffffffffff1673ffffffffffffffffffffffffffffffffffffffff16815260200190815260200160002081905550565b60016020528060005260406000206000915090505481565b7f000000000000000000000000000000000000000000000000000000000000000073ffffffffffffffffffffffffffffffffffffffff163373ffffffffffffffffffffffffffffffffffffffff161461036f576040517f30cd747100000000000000000000000000000000000000000000000000000000815260040160405180910390fd5b60005b60008054905081101561041a576000808281548110610394576103936109a7565b5b9060005260206000200160009054906101000a900473ffffffffffffffffffffffffffffffffffffffff1690506000600160008373ffffffffffffffffffffffffffffffffffffffff1673ffffffffffffffffffffffffffffffffffffffff1681526020019081526020016000208190555050808061041290610a05565b915050610372565b50600067ffffffffffffffff81111561043657610435610a4e565b5b6040519080825280602002602001820160405280156104645781602001602082028036833780820191505090505b506000908051906020019061047a92919061069c565b5060003373ffffffffffffffffffffffffffffffffffffffff16476040516104a190610aae565b60006040518083038185875af1925050503d80600081146104de576040519150601f19603f3d011682016040523d82523d6000602084013e6104e3565b606091505b5050905080610527576040517f08c379a000000000000000000000000000000000000000000000000000000000815260040161051e90610b0f565b60405180910390fd5b50565b6802b5e3af16b188000081565b600260009054906101000a900473ffffffffffffffffffffffffffffffffffffffff1681565b7f000000000000000000000000000000000000000000000000000000000000000081565b6000818154811061059157600080fd5b906000526020600020016000915054906101000a900473ffffffffffffffffffffffffffffffffffffffff1681565b6000806105cc836105fc565b90506000670de0b6b3a764000085836105e59190610b2f565b6105ef9190610bb8565b9050809250505092915050565b6000808273ffffffffffffffffffffffffffffffffffffffff1663feaf968c6040518163ffffffff1660e01b815260040160a06040518083038186803b15801561064557600080fd5b505afa158015610659573d6000803e3d6000fd5b505050506040513d601f19601f8201168201806040525081019061067d9190610c76565b5050509150506402540be400816106949190610cf1565b915050919050565b828054828255906000526020600020908101928215610715579160200282015b828111156107145782518260006101000a81548173ffffffffffffffffffffffffffffffffffffffff021916908373ffffffffffffffffffffffffffffffffffffffff160217905550916020019190600101906106bc565b5b5090506107229190610726565b5090565b5b8082111561073f576000816000905550600101610727565b5090565b600080fd5b600073ffffffffffffffffffffffffffffffffffffffff82169050919050565b600061077382610748565b9050919050565b61078381610768565b811461078e57600080fd5b50565b6000813590506107a08161077a565b92915050565b6000602082840312156107bc576107bb610743565b5b60006107ca84828501610791565b91505092915050565b6000819050919050565b6107e6816107d3565b82525050565b600060208201905061080160008301846107dd565b92915050565b6000819050919050565b600061082c61082761082284610748565b610807565b610748565b9050919050565b600061083e82610811565b9050919050565b600061085082610833565b9050919050565b61086081610845565b82525050565b600060208201905061087b6000830184610857565b92915050565b61088a81610768565b82525050565b60006020820190506108a56000830184610881565b92915050565b6108b4816107d3565b81146108bf57600080fd5b50565b6000813590506108d1816108ab565b92915050565b6000602082840312156108ed576108ec610743565b5b60006108fb848285016108c2565b91505092915050565b600082825260208201905092915050565b7f4469746e27742073656e6420656e6f7567682120726576657274696e6720636860008201527f616e676573000000000000000000000000000000000000000000000000000000602082015250565b6000610971602583610904565b915061097c82610915565b604082019050919050565b600060208201905081810360008301526109a081610964565b9050919050565b7f4e487b7100000000000000000000000000000000000000000000000000000000600052603260045260246000fd5b7f4e487b7100000000000000000000000000000000000000000000000000000000600052601160045260246000fd5b6000610a10826107d3565b91507fffffffffffffffffffffffffffffffffffffffffffffffffffffffffffffffff821415610a4357610a426109d6565b5b600182019050919050565b7f4e487b7100000000000000000000000000000000000000000000000000000000600052604160045260246000fd5b600081905092915050565b50565b6000610a98600083610a7d565b9150610aa382610a88565b600082019050919050565b6000610ab982610a8b565b9150819050919050565b7f43616c6c206661696c6564000000000000000000000000000000000000000000600082015250565b6000610af9600b83610904565b9150610b0482610ac3565b602082019050919050565b60006020820190508181036000830152610b2881610aec565b9050919050565b6000610b3a826107d3565b9150610b45836107d3565b9250817fffffffffffffffffffffffffffffffffffffffffffffffffffffffffffffffff0483118215151615610b7e57610b7d6109d6565b5b828202905092915050565b7f4e487b7100000000000000000000000000000000000000000000000000000000600052601260045260246000fd5b6000610bc3826107d3565b9150610bce836107d3565b925082610bde57610bdd610b89565b5b828204905092915050565b600069ffffffffffffffffffff82169050919050565b610c0881610be9565b8114610c1357600080fd5b50565b600081519050610c2581610bff565b92915050565b6000819050919050565b610c3e81610c2b565b8114610c4957600080fd5b50565b600081519050610c5b81610c35565b92915050565b600081519050610c70816108ab565b92915050565b600080600080600060a08688031215610c9257610c91610743565b5b6000610ca088828901610c16565b9550506020610cb188828901610c4c565b9450506040610cc288828901610c61565b9350506060610cd388828901610c61565b9250506080610ce488828901610c16565b9150509295509295909350565b6000610cfc82610c2b565b9150610d0783610c2b565b9250827f7fffffffffffffffffffffffffffffffffffffffffffffffffffffffffffffff0482116000841360008413161615610d4657610d456109d6565b5b817f80000000000000000000000000000000000000000000000000000000000000000583126000841260008413161615610d8357610d826109d6565b5b827f80000000000000000000000000000000000000000000000000000000000000000582126000841360008412161615610dc057610dbf6109d6565b5b827f7fffffffffffffffffffffffffffffffffffffffffffffffffffffffffffffff0582126000841260008412161615610dfd57610dfc6109d6565b5b82820290509291505056fea26469706673582212206d86e15b3f2fb875d26f086924e36af1f7f0fae1206776d2690a6a32a0e596d964736f6c63430008080033",
  "devdoc": {
    "kind": "dev",
    "methods": {},
    "version": 1
  },
  "userdoc": {
    "kind": "user",
    "methods": {},
    "version": 1
  },
  "storageLayout": {
    "storage": [
      {
        "astId": 61,
        "contract": "contracts/FundMe.sol:FundMe",
        "label": "funders",
        "offset": 0,
        "slot": "0",
        "type": "t_array(t_address)dyn_storage"
      },
      {
        "astId": 65,
        "contract": "contracts/FundMe.sol:FundMe",
        "label": "addressToAmount",
        "offset": 0,
        "slot": "1",
        "type": "t_mapping(t_address,t_uint256)"
      },
      {
        "astId": 70,
        "contract": "contracts/FundMe.sol:FundMe",
        "label": "priceFeed",
        "offset": 0,
        "slot": "2",
        "type": "t_contract(AggregatorV3Interface)45"
      }
    ],
    "types": {
      "t_address": {
        "encoding": "inplace",
        "label": "address",
        "numberOfBytes": "20"
      },
      "t_array(t_address)dyn_storage": {
        "base": "t_address",
        "encoding": "dynamic_array",
        "label": "address[]",
        "numberOfBytes": "32"
      },
      "t_contract(AggregatorV3Interface)45": {
        "encoding": "inplace",
        "label": "contract AggregatorV3Interface",
        "numberOfBytes": "20"
      },
      "t_mapping(t_address,t_uint256)": {
        "encoding": "mapping",
        "key": "t_address",
        "label": "mapping(address => uint256)",
        "numberOfBytes": "32",
        "value": "t_uint256"
      },
      "t_uint256": {
        "encoding": "inplace",
        "label": "uint256",
        "numberOfBytes": "32"
      }
    }
  }
}